{
    "_format": "hh-sol-artifact-1",
    "contractName": "HYBLOCKToken",
    "sourceName": "contracts/MyToken.sol",
    "abi": [
        {
            "inputs": [],
            "stateMutability": "nonpayable",
            "type": "constructor"
        },
        {
            "inputs": [
                {
                    "internalType": "address",
                    "name": "spender",
                    "type": "address"
                },
                {
                    "internalType": "uint256",
                    "name": "allowance",
                    "type": "uint256"
                },
                {
                    "internalType": "uint256",
                    "name": "needed",
                    "type": "uint256"
                }
            ],
            "name": "ERC20InsufficientAllowance",
            "type": "error"
        },
        {
            "inputs": [
                {
                    "internalType": "address",
                    "name": "sender",
                    "type": "address"
                },
                {
                    "internalType": "uint256",
                    "name": "balance",
                    "type": "uint256"
                },
                {
                    "internalType": "uint256",
                    "name": "needed",
                    "type": "uint256"
                }
            ],
            "name": "ERC20InsufficientBalance",
            "type": "error"
        },
        {
            "inputs": [
                {
                    "internalType": "address",
                    "name": "approver",
                    "type": "address"
                }
            ],
            "name": "ERC20InvalidApprover",
            "type": "error"
        },
        {
            "inputs": [
                {
                    "internalType": "address",
                    "name": "receiver",
                    "type": "address"
                }
            ],
            "name": "ERC20InvalidReceiver",
            "type": "error"
        },
        {
            "inputs": [
                {
                    "internalType": "address",
                    "name": "sender",
                    "type": "address"
                }
            ],
            "name": "ERC20InvalidSender",
            "type": "error"
        },
        {
            "inputs": [
                {
                    "internalType": "address",
                    "name": "spender",
                    "type": "address"
                }
            ],
            "name": "ERC20InvalidSpender",
            "type": "error"
        },
        {
            "inputs": [],
            "name": "EnforcedPause",
            "type": "error"
        },
        {
            "inputs": [],
            "name": "ExpectedPause",
            "type": "error"
        },
        {
            "inputs": [
                {
                    "internalType": "address",
                    "name": "owner",
                    "type": "address"
                }
            ],
            "name": "OwnableInvalidOwner",
            "type": "error"
        },
        {
            "inputs": [
                {
                    "internalType": "address",
                    "name": "account",
                    "type": "address"
                }
            ],
            "name": "OwnableUnauthorizedAccount",
            "type": "error"
        },
        {
            "anonymous": false,
            "inputs": [
                {
                    "indexed": true,
                    "internalType": "address",
                    "name": "owner",
                    "type": "address"
                },
                {
                    "indexed": true,
                    "internalType": "address",
                    "name": "spender",
                    "type": "address"
                },
                {
                    "indexed": false,
                    "internalType": "uint256",
                    "name": "value",
                    "type": "uint256"
                }
            ],
            "name": "Approval",
            "type": "event"
        },
        {
            "anonymous": false,
            "inputs": [
                {
                    "indexed": true,
                    "internalType": "address",
                    "name": "previousOwner",
                    "type": "address"
                },
                {
                    "indexed": true,
                    "internalType": "address",
                    "name": "newOwner",
                    "type": "address"
                }
            ],
            "name": "OwnershipTransferred",
            "type": "event"
        },
        {
            "anonymous": false,
            "inputs": [
                {
                    "indexed": false,
                    "internalType": "address",
                    "name": "account",
                    "type": "address"
                }
            ],
            "name": "Paused",
            "type": "event"
        },
        {
            "anonymous": false,
            "inputs": [
                {
                    "indexed": true,
                    "internalType": "address",
                    "name": "from",
                    "type": "address"
                },
                {
                    "indexed": false,
                    "internalType": "uint256",
                    "name": "amount",
                    "type": "uint256"
                }
            ],
            "name": "TokensBurned",
            "type": "event"
        },
        {
            "anonymous": false,
            "inputs": [
                {
                    "indexed": true,
                    "internalType": "address",
                    "name": "to",
                    "type": "address"
                },
                {
                    "indexed": false,
                    "internalType": "uint256",
                    "name": "amount",
                    "type": "uint256"
                }
            ],
            "name": "TokensMinted",
            "type": "event"
        },
        {
            "anonymous": false,
            "inputs": [
                {
                    "indexed": true,
                    "internalType": "address",
                    "name": "from",
                    "type": "address"
                },
                {
                    "indexed": true,
                    "internalType": "address",
                    "name": "to",
                    "type": "address"
                },
                {
                    "indexed": false,
                    "internalType": "uint256",
                    "name": "value",
                    "type": "uint256"
                }
            ],
            "name": "Transfer",
            "type": "event"
        },
        {
            "anonymous": false,
            "inputs": [
                {
                    "indexed": false,
                    "internalType": "address",
                    "name": "account",
                    "type": "address"
                }
            ],
            "name": "Unpaused",
            "type": "event"
        },
        {
            "inputs": [
                {
                    "internalType": "address",
                    "name": "owner",
                    "type": "address"
                },
                {
                    "internalType": "address",
                    "name": "spender",
                    "type": "address"
                }
            ],
            "name": "allowance",
            "outputs": [
                {
                    "internalType": "uint256",
                    "name": "",
                    "type": "uint256"
                }
            ],
            "stateMutability": "view",
            "type": "function"
        },
        {
            "inputs": [
                {
                    "internalType": "address",
                    "name": "spender",
                    "type": "address"
                },
                {
                    "internalType": "uint256",
                    "name": "value",
                    "type": "uint256"
                }
            ],
            "name": "approve",
            "outputs": [
                {
                    "internalType": "bool",
                    "name": "",
                    "type": "bool"
                }
            ],
            "stateMutability": "nonpayable",
            "type": "function"
        },
        {
            "inputs": [
                {
                    "internalType": "address",
                    "name": "account",
                    "type": "address"
                }
            ],
            "name": "balanceOf",
            "outputs": [
                {
                    "internalType": "uint256",
                    "name": "",
                    "type": "uint256"
                }
            ],
            "stateMutability": "view",
            "type": "function"
        },
        {
            "inputs": [
                {
                    "internalType": "uint256",
                    "name": "amount",
                    "type": "uint256"
                }
            ],
            "name": "burn",
            "outputs": [],
            "stateMutability": "nonpayable",
            "type": "function"
        },
        {
            "inputs": [
                {
                    "internalType": "address",
                    "name": "account",
                    "type": "address"
                },
                {
                    "internalType": "uint256",
                    "name": "value",
                    "type": "uint256"
                }
            ],
            "name": "burnFrom",
            "outputs": [],
            "stateMutability": "nonpayable",
            "type": "function"
        },
        {
            "inputs": [],
            "name": "decimals",
            "outputs": [
                {
                    "internalType": "uint8",
                    "name": "",
                    "type": "uint8"
                }
            ],
            "stateMutability": "pure",
            "type": "function"
        },
        {
            "inputs": [
                {
                    "internalType": "address",
                    "name": "to",
                    "type": "address"
                },
                {
                    "internalType": "uint256",
                    "name": "amount",
                    "type": "uint256"
                }
            ],
            "name": "mint",
            "outputs": [],
            "stateMutability": "nonpayable",
            "type": "function"
        },
        {
            "inputs": [],
            "name": "name",
            "outputs": [
                {
                    "internalType": "string",
                    "name": "",
                    "type": "string"
                }
            ],
            "stateMutability": "view",
            "type": "function"
        },
        {
            "inputs": [],
            "name": "owner",
            "outputs": [
                {
                    "internalType": "address",
                    "name": "",
                    "type": "address"
                }
            ],
            "stateMutability": "view",
            "type": "function"
        },
        {
            "inputs": [],
            "name": "pause",
            "outputs": [],
            "stateMutability": "nonpayable",
            "type": "function"
        },
        {
            "inputs": [],
            "name": "paused",
            "outputs": [
                {
                    "internalType": "bool",
                    "name": "",
                    "type": "bool"
                }
            ],
            "stateMutability": "view",
            "type": "function"
        },
        {
            "inputs": [],
            "name": "renounceOwnership",
            "outputs": [],
            "stateMutability": "nonpayable",
            "type": "function"
        },
        {
            "inputs": [],
            "name": "symbol",
            "outputs": [
                {
                    "internalType": "string",
                    "name": "",
                    "type": "string"
                }
            ],
            "stateMutability": "view",
            "type": "function"
        },
        {
            "inputs": [],
            "name": "totalSupply",
            "outputs": [
                {
                    "internalType": "uint256",
                    "name": "",
                    "type": "uint256"
                }
            ],
            "stateMutability": "view",
            "type": "function"
        },
        {
            "inputs": [
                {
                    "internalType": "address",
                    "name": "to",
                    "type": "address"
                },
                {
                    "internalType": "uint256",
                    "name": "value",
                    "type": "uint256"
                }
            ],
            "name": "transfer",
            "outputs": [
                {
                    "internalType": "bool",
                    "name": "",
                    "type": "bool"
                }
            ],
            "stateMutability": "nonpayable",
            "type": "function"
        },
        {
            "inputs": [
                {
                    "internalType": "address",
                    "name": "from",
                    "type": "address"
                },
                {
                    "internalType": "address",
                    "name": "to",
                    "type": "address"
                },
                {
                    "internalType": "uint256",
                    "name": "value",
                    "type": "uint256"
                }
            ],
            "name": "transferFrom",
            "outputs": [
                {
                    "internalType": "bool",
                    "name": "",
                    "type": "bool"
                }
            ],
            "stateMutability": "nonpayable",
            "type": "function"
        },
        {
            "inputs": [
                {
                    "internalType": "address",
                    "name": "newOwner",
                    "type": "address"
                }
            ],
            "name": "transferOwnership",
            "outputs": [],
            "stateMutability": "nonpayable",
            "type": "function"
        },
        {
            "inputs": [],
            "name": "unpause",
            "outputs": [],
            "stateMutability": "nonpayable",
            "type": "function"
        }
    ],
    "bytecode": "0x60806040523480156200001157600080fd5b50336040518060400160405280600781526020017f4859424c4f434b000000000000000000000000000000000000000000000000008152506040518060400160405280600381526020017f485942000000000000000000000000000000000000000000000000000000000081525081600390816200009091906200081c565b508060049081620000a291906200081c565b505050600073ffffffffffffffffffffffffffffffffffffffff168173ffffffffffffffffffffffffffffffffffffffff16036200011a5760006040517f1e4fbdf700000000000000000000000000000000000000000000000000000000815260040162000111919062000948565b60405180910390fd5b6200012b816200018d60201b60201c565b506000600560146101000a81548160ff02191690831515021790555062000187336200015c6200025360201b60201c565b600a6200016a919062000af5565b633b9aca006200017b919062000b46565b6200025c60201b60201c565b62000c37565b6000600560009054906101000a900473ffffffffffffffffffffffffffffffffffffffff16905081600560006101000a81548173ffffffffffffffffffffffffffffffffffffffff021916908373ffffffffffffffffffffffffffffffffffffffff1602179055508173ffffffffffffffffffffffffffffffffffffffff168173ffffffffffffffffffffffffffffffffffffffff167f8be0079c531659141344cd1fd0a4f28419497f9722a3daafe3b4186f6b6457e060405160405180910390a35050565b60006012905090565b600073ffffffffffffffffffffffffffffffffffffffff168273ffffffffffffffffffffffffffffffffffffffff1603620002d15760006040517fec442f05000000000000000000000000000000000000000000000000000000008152600401620002c8919062000948565b60405180910390fd5b620002e560008383620002e960201b60201c565b5050565b620002f96200031160201b60201c565b6200030c8383836200035b60201b60201c565b505050565b620003216200058b60201b60201c565b1562000359576040517fd93c066500000000000000000000000000000000000000000000000000000000815260040160405180910390fd5b565b600073ffffffffffffffffffffffffffffffffffffffff168373ffffffffffffffffffffffffffffffffffffffff1603620003b1578060026000828254620003a4919062000b91565b9250508190555062000487565b60008060008573ffffffffffffffffffffffffffffffffffffffff1673ffffffffffffffffffffffffffffffffffffffff1681526020019081526020016000205490508181101562000440578381836040517fe450d38c000000000000000000000000000000000000000000000000000000008152600401620004379392919062000bdd565b60405180910390fd5b8181036000808673ffffffffffffffffffffffffffffffffffffffff1673ffffffffffffffffffffffffffffffffffffffff16815260200190815260200160002081905550505b600073ffffffffffffffffffffffffffffffffffffffff168273ffffffffffffffffffffffffffffffffffffffff1603620004d257806002600082825403925050819055506200051f565b806000808473ffffffffffffffffffffffffffffffffffffffff1673ffffffffffffffffffffffffffffffffffffffff168152602001908152602001600020600082825401925050819055505b8173ffffffffffffffffffffffffffffffffffffffff168373ffffffffffffffffffffffffffffffffffffffff167fddf252ad1be2c89b69c2b068fc378daa952ba7f163c4a11628f55a4df523b3ef836040516200057e919062000c1a565b60405180910390a3505050565b6000600560149054906101000a900460ff16905090565b600081519050919050565b7f4e487b7100000000000000000000000000000000000000000000000000000000600052604160045260246000fd5b7f4e487b7100000000000000000000000000000000000000000000000000000000600052602260045260246000fd5b600060028204905060018216806200062457607f821691505b6020821081036200063a5762000639620005dc565b5b50919050565b60008190508160005260206000209050919050565b60006020601f8301049050919050565b600082821b905092915050565b600060088302620006a47fffffffffffffffffffffffffffffffffffffffffffffffffffffffffffffffff8262000665565b620006b0868362000665565b95508019841693508086168417925050509392505050565b6000819050919050565b6000819050919050565b6000620006fd620006f7620006f184620006c8565b620006d2565b620006c8565b9050919050565b6000819050919050565b6200071983620006dc565b62000731620007288262000704565b84845462000672565b825550505050565b600090565b6200074862000739565b620007558184846200070e565b505050565b5b818110156200077d57620007716000826200073e565b6001810190506200075b565b5050565b601f821115620007cc57620007968162000640565b620007a18462000655565b81016020851015620007b1578190505b620007c9620007c08562000655565b8301826200075a565b50505b505050565b600082821c905092915050565b6000620007f160001984600802620007d1565b1980831691505092915050565b60006200080c8383620007de565b9150826002028217905092915050565b6200082782620005a2565b67ffffffffffffffff811115620008435762000842620005ad565b5b6200084f82546200060b565b6200085c82828562000781565b600060209050601f8311600181146200089457600084156200087f578287015190505b6200088b8582620007fe565b865550620008fb565b601f198416620008a48662000640565b60005b82811015620008ce57848901518255600182019150602085019450602081019050620008a7565b86831015620008ee5784890151620008ea601f891682620007de565b8355505b6001600288020188555050505b505050505050565b600073ffffffffffffffffffffffffffffffffffffffff82169050919050565b6000620009308262000903565b9050919050565b620009428162000923565b82525050565b60006020820190506200095f600083018462000937565b92915050565b7f4e487b7100000000000000000000000000000000000000000000000000000000600052601160045260246000fd5b60008160011c9050919050565b6000808291508390505b6001851115620009f357808604811115620009cb57620009ca62000965565b5b6001851615620009db5780820291505b8081029050620009eb8562000994565b9450620009ab565b94509492505050565b60008262000a0e576001905062000ae1565b8162000a1e576000905062000ae1565b816001811462000a37576002811462000a425762000a78565b600191505062000ae1565b60ff84111562000a575762000a5662000965565b5b8360020a91508482111562000a715762000a7062000965565b5b5062000ae1565b5060208310610133831016604e8410600b841016171562000ab25782820a90508381111562000aac5762000aab62000965565b5b62000ae1565b62000ac18484846001620009a1565b9250905081840481111562000adb5762000ada62000965565b5b81810290505b9392505050565b600060ff82169050919050565b600062000b0282620006c8565b915062000b0f8362000ae8565b925062000b3e7fffffffffffffffffffffffffffffffffffffffffffffffffffffffffffffffff8484620009fc565b905092915050565b600062000b5382620006c8565b915062000b6083620006c8565b925082820262000b7081620006c8565b9150828204841483151762000b8a5762000b8962000965565b5b5092915050565b600062000b9e82620006c8565b915062000bab83620006c8565b925082820190508082111562000bc65762000bc562000965565b5b92915050565b62000bd781620006c8565b82525050565b600060608201905062000bf4600083018662000937565b62000c03602083018562000bcc565b62000c12604083018462000bcc565b949350505050565b600060208201905062000c31600083018462000bcc565b92915050565b6115778062000c476000396000f3fe608060405234801561001057600080fd5b50600436106101165760003560e01c806370a08231116100a25780638da5cb5b116100715780638da5cb5b1461029557806395d89b41146102b3578063a9059cbb146102d1578063dd62ed3e14610301578063f2fde38b1461033157610116565b806370a0823114610235578063715018a61461026557806379cc67901461026f5780638456cb591461028b57610116565b8063313ce567116100e9578063313ce567146101b75780633f4ba83a146101d557806340c10f19146101df57806342966c68146101fb5780635c975abb1461021757610116565b806306fdde031461011b578063095ea7b31461013957806318160ddd1461016957806323b872dd14610187575b600080fd5b61012361034d565b604051610130919061119e565b60405180910390f35b610153600480360381019061014e9190611259565b6103df565b60405161016091906112b4565b60405180910390f35b610171610402565b60405161017e91906112de565b60405180910390f35b6101a1600480360381019061019c91906112f9565b61040c565b6040516101ae91906112b4565b60405180910390f35b6101bf61043b565b6040516101cc9190611368565b60405180910390f35b6101dd610444565b005b6101f960048036038101906101f49190611259565b610456565b005b61021560048036038101906102109190611383565b6104ba565b005b61021f61051b565b60405161022c91906112b4565b60405180910390f35b61024f600480360381019061024a91906113b0565b610532565b60405161025c91906112de565b60405180910390f35b61026d61057a565b005b61028960048036038101906102849190611259565b61058e565b005b6102936105ae565b005b61029d6105c0565b6040516102aa91906113ec565b60405180910390f35b6102bb6105ea565b6040516102c8919061119e565b60405180910390f35b6102eb60048036038101906102e69190611259565b61067c565b6040516102f891906112b4565b60405180910390f35b61031b60048036038101906103169190611407565b61069f565b60405161032891906112de565b60405180910390f35b61034b600480360381019061034691906113b0565b610726565b005b60606003805461035c90611476565b80601f016020809104026020016040519081016040528092919081815260200182805461038890611476565b80156103d55780601f106103aa576101008083540402835291602001916103d5565b820191906000526020600020905b8154815290600101906020018083116103b857829003601f168201915b5050505050905090565b6000806103ea6107ac565b90506103f78185856107b4565b600191505092915050565b6000600254905090565b6000806104176107ac565b90506104248582856107c6565b61042f85858561085a565b60019150509392505050565b60006012905090565b61044c61094e565b6104546109d5565b565b61045e61094e565b6104688282610a38565b8173ffffffffffffffffffffffffffffffffffffffff167f3f2c9d57c068687834f0de942a9babb9e5acab57d516d3480a3c16ee165a4273826040516104ae91906112de565b60405180910390a25050565b6104c381610aba565b6104cb6107ac565b73ffffffffffffffffffffffffffffffffffffffff167ffd38818f5291bf0bb3a2a48aadc06ba8757865d1dabd804585338aab3009dcb68260405161051091906112de565b60405180910390a250565b6000600560149054906101000a900460ff16905090565b60008060008373ffffffffffffffffffffffffffffffffffffffff1673ffffffffffffffffffffffffffffffffffffffff168152602001908152602001600020549050919050565b61058261094e565b61058c6000610ace565b565b6105a08261059a6107ac565b836107c6565b6105aa8282610b94565b5050565b6105b661094e565b6105be610c16565b565b6000600560009054906101000a900473ffffffffffffffffffffffffffffffffffffffff16905090565b6060600480546105f990611476565b80601f016020809104026020016040519081016040528092919081815260200182805461062590611476565b80156106725780601f1061064757610100808354040283529160200191610672565b820191906000526020600020905b81548152906001019060200180831161065557829003601f168201915b5050505050905090565b6000806106876107ac565b905061069481858561085a565b600191505092915050565b6000600160008473ffffffffffffffffffffffffffffffffffffffff1673ffffffffffffffffffffffffffffffffffffffff16815260200190815260200160002060008373ffffffffffffffffffffffffffffffffffffffff1673ffffffffffffffffffffffffffffffffffffffff16815260200190815260200160002054905092915050565b61072e61094e565b600073ffffffffffffffffffffffffffffffffffffffff168173ffffffffffffffffffffffffffffffffffffffff16036107a05760006040517f1e4fbdf700000000000000000000000000000000000000000000000000000000815260040161079791906113ec565b60405180910390fd5b6107a981610ace565b50565b600033905090565b6107c18383836001610c79565b505050565b60006107d2848461069f565b90507fffffffffffffffffffffffffffffffffffffffffffffffffffffffffffffffff81146108545781811015610844578281836040517ffb8f41b200000000000000000000000000000000000000000000000000000000815260040161083b939291906114a7565b60405180910390fd5b61085384848484036000610c79565b5b50505050565b600073ffffffffffffffffffffffffffffffffffffffff168373ffffffffffffffffffffffffffffffffffffffff16036108cc5760006040517f96c6fd1e0000000000000000000000000000000000000000000000000000000081526004016108c391906113ec565b60405180910390fd5b600073ffffffffffffffffffffffffffffffffffffffff168273ffffffffffffffffffffffffffffffffffffffff160361093e5760006040517fec442f0500000000000000000000000000000000000000000000000000000000815260040161093591906113ec565b60405180910390fd5b610949838383610e50565b505050565b6109566107ac565b73ffffffffffffffffffffffffffffffffffffffff166109746105c0565b73ffffffffffffffffffffffffffffffffffffffff16146109d3576109976107ac565b6040517f118cdaa70000000000000000000000000000000000000000000000000000000081526004016109ca91906113ec565b60405180910390fd5b565b6109dd610e68565b6000600560146101000a81548160ff0219169083151502179055507f5db9ee0a495bf2e6ff9c91a7834c1ba4fdd244a5e8aa4e537bd38aeae4b073aa610a216107ac565b604051610a2e91906113ec565b60405180910390a1565b600073ffffffffffffffffffffffffffffffffffffffff168273ffffffffffffffffffffffffffffffffffffffff1603610aaa5760006040517fec442f05000000000000000000000000000000000000000000000000000000008152600401610aa191906113ec565b60405180910390fd5b610ab660008383610e50565b5050565b610acb610ac56107ac565b82610b94565b50565b6000600560009054906101000a900473ffffffffffffffffffffffffffffffffffffffff16905081600560006101000a81548173ffffffffffffffffffffffffffffffffffffffff021916908373ffffffffffffffffffffffffffffffffffffffff1602179055508173ffffffffffffffffffffffffffffffffffffffff168173ffffffffffffffffffffffffffffffffffffffff167f8be0079c531659141344cd1fd0a4f28419497f9722a3daafe3b4186f6b6457e060405160405180910390a35050565b600073ffffffffffffffffffffffffffffffffffffffff168273ffffffffffffffffffffffffffffffffffffffff1603610c065760006040517f96c6fd1e000000000000000000000000000000000000000000000000000000008152600401610bfd91906113ec565b60405180910390fd5b610c1282600083610e50565b5050565b610c1e610ea8565b6001600560146101000a81548160ff0219169083151502179055507f62e78cea01bee320cd4e420270b5ea74000d11b0c9f74754ebdbfc544b05a258610c626107ac565b604051610c6f91906113ec565b60405180910390a1565b600073ffffffffffffffffffffffffffffffffffffffff168473ffffffffffffffffffffffffffffffffffffffff1603610ceb5760006040517fe602df05000000000000000000000000000000000000000000000000000000008152600401610ce291906113ec565b60405180910390fd5b600073ffffffffffffffffffffffffffffffffffffffff168373ffffffffffffffffffffffffffffffffffffffff1603610d5d5760006040517f94280d62000000000000000000000000000000000000000000000000000000008152600401610d5491906113ec565b60405180910390fd5b81600160008673ffffffffffffffffffffffffffffffffffffffff1673ffffffffffffffffffffffffffffffffffffffff16815260200190815260200160002060008573ffffffffffffffffffffffffffffffffffffffff1673ffffffffffffffffffffffffffffffffffffffff168152602001908152602001600020819055508015610e4a578273ffffffffffffffffffffffffffffffffffffffff168473ffffffffffffffffffffffffffffffffffffffff167f8c5be1e5ebec7d5bd14f71427d1e84f3dd0314c0f7b2291e5b200ac8c7c3b92584604051610e4191906112de565b60405180910390a35b50505050565b610e58610ea8565b610e63838383610ee9565b505050565b610e7061051b565b610ea6576040517f8dfc202b00000000000000000000000000000000000000000000000000000000815260040160405180910390fd5b565b610eb061051b565b15610ee7576040517fd93c066500000000000000000000000000000000000000000000000000000000815260040160405180910390fd5b565b600073ffffffffffffffffffffffffffffffffffffffff168373ffffffffffffffffffffffffffffffffffffffff1603610f3b578060026000828254610f2f919061150d565b9250508190555061100e565b60008060008573ffffffffffffffffffffffffffffffffffffffff1673ffffffffffffffffffffffffffffffffffffffff16815260200190815260200160002054905081811015610fc7578381836040517fe450d38c000000000000000000000000000000000000000000000000000000008152600401610fbe939291906114a7565b60405180910390fd5b8181036000808673ffffffffffffffffffffffffffffffffffffffff1673ffffffffffffffffffffffffffffffffffffffff16815260200190815260200160002081905550505b600073ffffffffffffffffffffffffffffffffffffffff168273ffffffffffffffffffffffffffffffffffffffff160361105757806002600082825403925050819055506110a4565b806000808473ffffffffffffffffffffffffffffffffffffffff1673ffffffffffffffffffffffffffffffffffffffff168152602001908152602001600020600082825401925050819055505b8173ffffffffffffffffffffffffffffffffffffffff168373ffffffffffffffffffffffffffffffffffffffff167fddf252ad1be2c89b69c2b068fc378daa952ba7f163c4a11628f55a4df523b3ef8360405161110191906112de565b60405180910390a3505050565b600081519050919050565b600082825260208201905092915050565b60005b8381101561114857808201518184015260208101905061112d565b60008484015250505050565b6000601f19601f8301169050919050565b60006111708261110e565b61117a8185611119565b935061118a81856020860161112a565b61119381611154565b840191505092915050565b600060208201905081810360008301526111b88184611165565b905092915050565b600080fd5b600073ffffffffffffffffffffffffffffffffffffffff82169050919050565b60006111f0826111c5565b9050919050565b611200816111e5565b811461120b57600080fd5b50565b60008135905061121d816111f7565b92915050565b6000819050919050565b61123681611223565b811461124157600080fd5b50565b6000813590506112538161122d565b92915050565b600080604083850312156112705761126f6111c0565b5b600061127e8582860161120e565b925050602061128f85828601611244565b9150509250929050565b60008115159050919050565b6112ae81611299565b82525050565b60006020820190506112c960008301846112a5565b92915050565b6112d881611223565b82525050565b60006020820190506112f360008301846112cf565b92915050565b600080600060608486031215611312576113116111c0565b5b60006113208682870161120e565b93505060206113318682870161120e565b925050604061134286828701611244565b9150509250925092565b600060ff82169050919050565b6113628161134c565b82525050565b600060208201905061137d6000830184611359565b92915050565b600060208284031215611399576113986111c0565b5b60006113a784828501611244565b91505092915050565b6000602082840312156113c6576113c56111c0565b5b60006113d48482850161120e565b91505092915050565b6113e6816111e5565b82525050565b600060208201905061140160008301846113dd565b92915050565b6000806040838503121561141e5761141d6111c0565b5b600061142c8582860161120e565b925050602061143d8582860161120e565b9150509250929050565b7f4e487b7100000000000000000000000000000000000000000000000000000000600052602260045260246000fd5b6000600282049050600182168061148e57607f821691505b6020821081036114a1576114a0611447565b5b50919050565b60006060820190506114bc60008301866113dd565b6114c960208301856112cf565b6114d660408301846112cf565b949350505050565b7f4e487b7100000000000000000000000000000000000000000000000000000000600052601160045260246000fd5b600061151882611223565b915061152383611223565b925082820190508082111561153b5761153a6114de565b5b9291505056fea264697066735822122077cb0f82dc6824dbfc8d94b8b82edf26547fb71bee77d2094cb910880d7a5af864736f6c63430008140033",
    "linkReferences": {},
    "deployedLinkReferences": {}
}