{
  "_format": "hh-sol-artifact-1",
  "contractName": "MultiBetERCExp",
  "sourceName": "contracts/MultiBet-ERC20-Exp.sol",
  "abi": [
    {
      "inputs": [
        {
          "internalType": "address",
          "name": "_tokenAddress",
          "type": "address"
        }
      ],
      "stateMutability": "nonpayable",
      "type": "constructor"
    },
    {
      "anonymous": false,
      "inputs": [
        {
          "indexed": true,
          "internalType": "uint256",
          "name": "betId",
          "type": "uint256"
        },
        {
          "indexed": false,
          "internalType": "string",
          "name": "topic",
          "type": "string"
        },
        {
          "indexed": false,
          "internalType": "string[]",
          "name": "options",
          "type": "string[]"
        }
      ],
      "name": "BetCreated",
      "type": "event"
    },
    {
      "anonymous": false,
      "inputs": [
        {
          "indexed": true,
          "internalType": "uint256",
          "name": "betId",
          "type": "uint256"
        },
        {
          "indexed": true,
          "internalType": "address",
          "name": "user",
          "type": "address"
        },
        {
          "indexed": false,
          "internalType": "uint256",
          "name": "amount",
          "type": "uint256"
        },
        {
          "indexed": false,
          "internalType": "string",
          "name": "option",
          "type": "string"
        }
      ],
      "name": "BetPlaced",
      "type": "event"
    },
    {
      "anonymous": false,
      "inputs": [
        {
          "indexed": true,
          "internalType": "uint256",
          "name": "betId",
          "type": "uint256"
        },
        {
          "indexed": false,
          "internalType": "string",
          "name": "winningOption",
          "type": "string"
        }
      ],
      "name": "BetResolved",
      "type": "event"
    },
    {
      "inputs": [],
      "name": "betCount",
      "outputs": [
        {
          "internalType": "uint256",
          "name": "",
          "type": "uint256"
        }
      ],
      "stateMutability": "view",
      "type": "function"
    },
    {
      "inputs": [
        {
          "internalType": "string",
          "name": "_topic",
          "type": "string"
        },
        {
          "internalType": "string[]",
          "name": "_options",
          "type": "string[]"
        }
      ],
      "name": "createBet",
      "outputs": [],
      "stateMutability": "nonpayable",
      "type": "function"
    },
    {
      "inputs": [
        {
          "internalType": "uint256",
          "name": "betId",
          "type": "uint256"
        }
      ],
      "name": "getBet",
      "outputs": [
        {
          "internalType": "string",
          "name": "topic",
          "type": "string"
        },
        {
          "internalType": "bool",
          "name": "isResolved",
          "type": "bool"
        },
        {
          "internalType": "uint256",
          "name": "totalAmount",
          "type": "uint256"
        },
        {
          "internalType": "string",
          "name": "winningOption",
          "type": "string"
        }
      ],
      "stateMutability": "view",
      "type": "function"
    },
    {
      "inputs": [
        {
          "internalType": "uint256",
          "name": "betId",
          "type": "uint256"
        }
      ],
      "name": "getBetOptionInfos",
      "outputs": [
        {
          "internalType": "string[]",
          "name": "options",
          "type": "string[]"
        },
        {
          "internalType": "uint256[]",
          "name": "optionBets",
          "type": "uint256[]"
        },
        {
          "internalType": "uint256",
          "name": "totalAmount",
          "type": "uint256"
        }
      ],
      "stateMutability": "view",
      "type": "function"
    },
    {
      "inputs": [
        {
          "internalType": "uint256",
          "name": "betId",
          "type": "uint256"
        },
        {
          "internalType": "address",
          "name": "user",
          "type": "address"
        }
      ],
      "name": "getUserBet",
      "outputs": [
        {
          "internalType": "uint256[]",
          "name": "optionIndexes",
          "type": "uint256[]"
        },
        {
          "internalType": "uint256[]",
          "name": "betAmounts",
          "type": "uint256[]"
        }
      ],
      "stateMutability": "view",
      "type": "function"
    },
    {
      "inputs": [],
      "name": "get_nickname",
      "outputs": [
        {
          "internalType": "string",
          "name": "",
          "type": "string"
        }
      ],
      "stateMutability": "view",
      "type": "function"
    },
    {
      "inputs": [],
      "name": "hyblockToken",
      "outputs": [
        {
          "internalType": "contract IERC20",
          "name": "",
          "type": "address"
        }
      ],
      "stateMutability": "view",
      "type": "function"
    },
    {
      "inputs": [],
      "name": "owner",
      "outputs": [
        {
          "internalType": "address",
          "name": "",
          "type": "address"
        }
      ],
      "stateMutability": "view",
      "type": "function"
    },
    {
      "inputs": [
        {
          "internalType": "uint256",
          "name": "betId",
          "type": "uint256"
        },
        {
          "internalType": "string",
          "name": "_option",
          "type": "string"
        },
        {
          "internalType": "uint256",
          "name": "amount",
          "type": "uint256"
        }
      ],
      "name": "placeBet",
      "outputs": [],
      "stateMutability": "nonpayable",
      "type": "function"
    },
    {
      "inputs": [
        {
          "internalType": "uint256",
          "name": "betId",
          "type": "uint256"
        },
        {
          "internalType": "string",
          "name": "_winningOption",
          "type": "string"
        }
      ],
      "name": "resolveBet",
      "outputs": [],
      "stateMutability": "nonpayable",
      "type": "function"
    },
    {
      "inputs": [
        {
          "internalType": "string",
          "name": "nickname",
          "type": "string"
        }
      ],
      "name": "set_nickname",
      "outputs": [],
      "stateMutability": "nonpayable",
      "type": "function"
    }
  ],
  "bytecode": "0x60806040523480156200001157600080fd5b5060405162002a0a38038062002a0a833981810160405281019062000037919062000129565b336000806101000a81548173ffffffffffffffffffffffffffffffffffffffff021916908373ffffffffffffffffffffffffffffffffffffffff16021790555080600260006101000a81548173ffffffffffffffffffffffffffffffffffffffff021916908373ffffffffffffffffffffffffffffffffffffffff160217905550506200015b565b600080fd5b600073ffffffffffffffffffffffffffffffffffffffff82169050919050565b6000620000f182620000c4565b9050919050565b6200010381620000e4565b81146200010f57600080fd5b50565b6000815190506200012381620000f8565b92915050565b600060208284031215620001425762000141620000bf565b5b6000620001528482850162000112565b91505092915050565b61289f806200016b6000396000f3fe608060405234801561001057600080fd5b50600436106100a95760003560e01c80638da5cb5b116100715780638da5cb5b14610167578063b8d64c6114610185578063bbd39dc2146101a1578063bd7214e8146101bf578063c03fb87c146101dd578063cf0944971461020e576100a9565b8063061e494f146100ae5780630803d608146100e1578063437674261461011357806358cfc90d1461012f5780636788be031461014b575b600080fd5b6100c860048036038101906100c39190611528565b61022c565b6040516100d8949392919061160f565b60405180910390f35b6100fb60048036038101906100f69190611528565b610416565b60405161010a9392919061182c565b60405180910390f35b61012d600480360381019061012891906119a6565b610663565b005b61014960048036038101906101449190611a15565b610a71565b005b61016560048036038101906101609190611b44565b610ac1565b005b61016f610cb7565b60405161017c9190611bfd565b60405180910390f35b61019f600480360381019061019a9190611c18565b610cdb565b005b6101a961108e565b6040516101b69190611c74565b60405180910390f35b6101c761115d565b6040516101d49190611cf5565b60405180910390f35b6101f760048036038101906101f29190611d3c565b611183565b604051610205929190611d7c565b60405180910390f35b6102166113ea565b6040516102239190611db3565b60405180910390f35b60606000806060846004548110610278576040517f08c379a000000000000000000000000000000000000000000000000000000000815260040161026f90611e1a565b60405180910390fd5b600060036000888152602001908152602001600020905080600001805461029e90611e69565b80601f01602080910402602001604051908101604052809291908181526020018280546102ca90611e69565b80156103175780601f106102ec57610100808354040283529160200191610317565b820191906000526020600020905b8154815290600101906020018083116102fa57829003601f168201915b505050505095508060010160009054906101000a900460ff1694508060020154935084156103fa578060040181600301548154811061035957610358611e9a565b5b9060005260206000209060020201600001805461037590611e69565b80601f01602080910402602001604051908101604052809291908181526020018280546103a190611e69565b80156103ee5780601f106103c3576101008083540402835291602001916103ee565b820191906000526020600020905b8154815290600101906020018083116103d157829003601f168201915b5050505050925061040d565b6040518060200160405280600081525092505b50509193509193565b6060806000836004548110610460576040517f08c379a000000000000000000000000000000000000000000000000000000000815260040161045790611e1a565b60405180910390fd5b60006003600087815260200190815260200160002090506000816004018054905090508067ffffffffffffffff81111561049d5761049c61187b565b5b6040519080825280602002602001820160405280156104d057816020015b60608152602001906001900390816104bb5790505b5095508067ffffffffffffffff8111156104ed576104ec61187b565b5b60405190808252806020026020018201604052801561051b5781602001602082028036833780820191505090505b50945060005b818110156106515782600401818154811061053f5761053e611e9a565b5b9060005260206000209060020201600001805461055b90611e69565b80601f016020809104026020016040519081016040528092919081815260200182805461058790611e69565b80156105d45780601f106105a9576101008083540402835291602001916105d4565b820191906000526020600020905b8154815290600101906020018083116105b757829003601f168201915b50505050508782815181106105ec576105eb611e9a565b5b602002602001018190525082600401818154811061060d5761060c611e9a565b5b90600052602060002090600202016001015486828151811061063257610631611e9a565b5b602002602001018181525050808061064990611ef8565b915050610521565b50816002015493505050509193909250565b8260045481106106a8576040517f08c379a000000000000000000000000000000000000000000000000000000000815260040161069f90611e1a565b60405180910390fd5b60006003600086815260200190815260200160002090508060010160009054906101000a900460ff1615610711576040517f08c379a000000000000000000000000000000000000000000000000000000000815260040161070890611f8c565b60405180910390fd5b60008311610754576040517f08c379a000000000000000000000000000000000000000000000000000000000815260040161074b9061201e565b60405180910390fd5b600260009054906101000a900473ffffffffffffffffffffffffffffffffffffffff1673ffffffffffffffffffffffffffffffffffffffff166323b872dd3330866040518463ffffffff1660e01b81526004016107b39392919061203e565b6020604051808303816000875af11580156107d2573d6000803e3d6000fd5b505050506040513d601f19601f820116820180604052508101906107f691906120a1565b610835576040517f08c379a000000000000000000000000000000000000000000000000000000000815260040161082c9061211a565b60405180910390fd5b600061084182866113f0565b90508382600401828154811061085a57610859611e9a565b5b9060005260206000209060020201600101600082825461087a919061213a565b9250508190555083826002016000828254610895919061213a565b92505081905550838260050160003373ffffffffffffffffffffffffffffffffffffffff1673ffffffffffffffffffffffffffffffffffffffff168152602001908152602001600020600083815260200190815260200160002060008282546108fe919061213a565b925050819055508160060160003373ffffffffffffffffffffffffffffffffffffffff1673ffffffffffffffffffffffffffffffffffffffff16815260200190815260200160002060009054906101000a900460ff16610a185760018260060160003373ffffffffffffffffffffffffffffffffffffffff1673ffffffffffffffffffffffffffffffffffffffff16815260200190815260200160002060006101000a81548160ff02191690831515021790555081600701339080600181540180825580915050600190039060005260206000200160009091909190916101000a81548173ffffffffffffffffffffffffffffffffffffffff021916908373ffffffffffffffffffffffffffffffffffffffff1602179055505b3373ffffffffffffffffffffffffffffffffffffffff16867f3a5b25f48e15ab3e4d810304ed7368c35de823921fa3fd504ba8ab2841bf1ad78688604051610a6192919061216e565b60405180910390a3505050505050565b80600160003373ffffffffffffffffffffffffffffffffffffffff1673ffffffffffffffffffffffffffffffffffffffff1681526020019081526020016000209081610abd9190612340565b5050565b60008054906101000a900473ffffffffffffffffffffffffffffffffffffffff1673ffffffffffffffffffffffffffffffffffffffff163373ffffffffffffffffffffffffffffffffffffffff1614610b4f576040517f08c379a0000000000000000000000000000000000000000000000000000000008152600401610b4690612484565b60405180910390fd5b600281511015610b94576040517f08c379a0000000000000000000000000000000000000000000000000000000008152600401610b8b90612516565b60405180910390fd5b6000600360006004548152602001908152602001600020905082816000019081610bbe9190612340565b5060005b8251811015610c5d57816004016040518060400160405280858481518110610bed57610bec611e9a565b5b60200260200101518152602001600081525090806001815401808255809150506001900390600052602060002090600202016000909190919091506000820151816000019081610c3d9190612340565b506020820151816001015550508080610c5590611ef8565b915050610bc2565b506004547f4538c39e84407a3d0f84f8064432d48edac9affc682c4bf829d24b2cd4f1ddda8484604051610c92929190612536565b60405180910390a260046000815480929190610cad90611ef8565b9190505550505050565b60008054906101000a900473ffffffffffffffffffffffffffffffffffffffff1681565b60008054906101000a900473ffffffffffffffffffffffffffffffffffffffff1673ffffffffffffffffffffffffffffffffffffffff163373ffffffffffffffffffffffffffffffffffffffff1614610d69576040517f08c379a0000000000000000000000000000000000000000000000000000000008152600401610d6090612484565b60405180910390fd5b816004548110610dae576040517f08c379a0000000000000000000000000000000000000000000000000000000008152600401610da590611e1a565b60405180910390fd5b60006003600085815260200190815260200160002090508060010160009054906101000a900460ff1615610e17576040517f08c379a0000000000000000000000000000000000000000000000000000000008152600401610e0e906125b9565b60405180910390fd5b6000610e2382856113f0565b905060018260010160006101000a81548160ff0219169083151502179055508082600301819055506000826004018281548110610e6357610e62611e9a565b5b9060005260206000209060020201600101549050600081111561104e5760005b836007018054905081101561104c576000846007018281548110610eaa57610ea9611e9a565b5b9060005260206000200160009054906101000a900473ffffffffffffffffffffffffffffffffffffffff16905060008560050160008373ffffffffffffffffffffffffffffffffffffffff1673ffffffffffffffffffffffffffffffffffffffff1681526020019081526020016000206000868152602001908152602001600020549050600081111561103757600084876002015483610f4a91906125d9565b610f54919061264a565b9050600260009054906101000a900473ffffffffffffffffffffffffffffffffffffffff1673ffffffffffffffffffffffffffffffffffffffff1663a9059cbb84836040518363ffffffff1660e01b8152600401610fb392919061267b565b6020604051808303816000875af1158015610fd2573d6000803e3d6000fd5b505050506040513d601f19601f82011682018060405250810190610ff691906120a1565b611035576040517f08c379a000000000000000000000000000000000000000000000000000000000815260040161102c906126f0565b60405180910390fd5b505b5050808061104490611ef8565b915050610e83565b505b857fc2e1982e2e7e5f430d49f79ef7583b4996724b83c9e7429c42b12eb9f706de948660405161107e9190611c74565b60405180910390a2505050505050565b6060600160003373ffffffffffffffffffffffffffffffffffffffff1673ffffffffffffffffffffffffffffffffffffffff16815260200190815260200160002080546110da90611e69565b80601f016020809104026020016040519081016040528092919081815260200182805461110690611e69565b80156111535780601f1061112857610100808354040283529160200191611153565b820191906000526020600020905b81548152906001019060200180831161113657829003601f168201915b5050505050905090565b600260009054906101000a900473ffffffffffffffffffffffffffffffffffffffff1681565b6060808360045481106111cb576040517f08c379a00000000000000000000000000000000000000000000000000000000081526004016111c290611e1a565b60405180910390fd5b60006003600087815260200190815260200160002090506000816004018054905090506000805b828110156112775760008460050160008a73ffffffffffffffffffffffffffffffffffffffff1673ffffffffffffffffffffffffffffffffffffffff168152602001908152602001600020600083815260200190815260200160002054111561126457818061126090611ef8565b9250505b808061126f90611ef8565b9150506111f2565b508067ffffffffffffffff8111156112925761129161187b565b5b6040519080825280602002602001820160405280156112c05781602001602082028036833780820191505090505b5095508067ffffffffffffffff8111156112dd576112dc61187b565b5b60405190808252806020026020018201604052801561130b5781602001602082028036833780820191505090505b5094506000805b838110156113dd5760008560050160008b73ffffffffffffffffffffffffffffffffffffffff1673ffffffffffffffffffffffffffffffffffffffff168152602001908152602001600020600083815260200190815260200160002054905060008111156113c9578189848151811061138e5761138d611e9a565b5b602002602001018181525050808884815181106113ae576113ad611e9a565b5b60200260200101818152505082806113c590611ef8565b9350505b5080806113d590611ef8565b915050611312565b5050505050509250929050565b60045481565b600080600090505b836004018054905081101561149c5782604051602001611418919061274c565b6040516020818303038152906040528051906020012084600401828154811061144457611443611e9a565b5b906000526020600020906002020160000160405160200161146591906127e6565b604051602081830303815290604052805190602001200361148957809150506114d8565b808061149490611ef8565b9150506113f8565b506040517f08c379a00000000000000000000000000000000000000000000000000000000081526004016114cf90612849565b60405180910390fd5b92915050565b6000604051905090565b600080fd5b600080fd5b6000819050919050565b611505816114f2565b811461151057600080fd5b50565b600081359050611522816114fc565b92915050565b60006020828403121561153e5761153d6114e8565b5b600061154c84828501611513565b91505092915050565b600081519050919050565b600082825260208201905092915050565b60005b8381101561158f578082015181840152602081019050611574565b60008484015250505050565b6000601f19601f8301169050919050565b60006115b782611555565b6115c18185611560565b93506115d1818560208601611571565b6115da8161159b565b840191505092915050565b60008115159050919050565b6115fa816115e5565b82525050565b611609816114f2565b82525050565b6000608082019050818103600083015261162981876115ac565b905061163860208301866115f1565b6116456040830185611600565b818103606083015261165781846115ac565b905095945050505050565b600081519050919050565b600082825260208201905092915050565b6000819050602082019050919050565b600082825260208201905092915050565b60006116aa82611555565b6116b4818561168e565b93506116c4818560208601611571565b6116cd8161159b565b840191505092915050565b60006116e4838361169f565b905092915050565b6000602082019050919050565b600061170482611662565b61170e818561166d565b9350836020820285016117208561167e565b8060005b8581101561175c578484038952815161173d85826116d8565b9450611748836116ec565b925060208a01995050600181019050611724565b50829750879550505050505092915050565b600081519050919050565b600082825260208201905092915050565b6000819050602082019050919050565b6117a3816114f2565b82525050565b60006117b5838361179a565b60208301905092915050565b6000602082019050919050565b60006117d98261176e565b6117e38185611779565b93506117ee8361178a565b8060005b8381101561181f57815161180688826117a9565b9750611811836117c1565b9250506001810190506117f2565b5085935050505092915050565b6000606082019050818103600083015261184681866116f9565b9050818103602083015261185a81856117ce565b90506118696040830184611600565b949350505050565b600080fd5b600080fd5b7f4e487b7100000000000000000000000000000000000000000000000000000000600052604160045260246000fd5b6118b38261159b565b810181811067ffffffffffffffff821117156118d2576118d161187b565b5b80604052505050565b60006118e56114de565b90506118f182826118aa565b919050565b600067ffffffffffffffff8211156119115761191061187b565b5b61191a8261159b565b9050602081019050919050565b82818337600083830152505050565b6000611949611944846118f6565b6118db565b90508281526020810184848401111561196557611964611876565b5b611970848285611927565b509392505050565b600082601f83011261198d5761198c611871565b5b813561199d848260208601611936565b91505092915050565b6000806000606084860312156119bf576119be6114e8565b5b60006119cd86828701611513565b935050602084013567ffffffffffffffff8111156119ee576119ed6114ed565b5b6119fa86828701611978565b9250506040611a0b86828701611513565b9150509250925092565b600060208284031215611a2b57611a2a6114e8565b5b600082013567ffffffffffffffff811115611a4957611a486114ed565b5b611a5584828501611978565b91505092915050565b600067ffffffffffffffff821115611a7957611a7861187b565b5b602082029050602081019050919050565b600080fd5b6000611aa2611a9d84611a5e565b6118db565b90508083825260208201905060208402830185811115611ac557611ac4611a8a565b5b835b81811015611b0c57803567ffffffffffffffff811115611aea57611ae9611871565b5b808601611af78982611978565b85526020850194505050602081019050611ac7565b5050509392505050565b600082601f830112611b2b57611b2a611871565b5b8135611b3b848260208601611a8f565b91505092915050565b60008060408385031215611b5b57611b5a6114e8565b5b600083013567ffffffffffffffff811115611b7957611b786114ed565b5b611b8585828601611978565b925050602083013567ffffffffffffffff811115611ba657611ba56114ed565b5b611bb285828601611b16565b9150509250929050565b600073ffffffffffffffffffffffffffffffffffffffff82169050919050565b6000611be782611bbc565b9050919050565b611bf781611bdc565b82525050565b6000602082019050611c126000830184611bee565b92915050565b60008060408385031215611c2f57611c2e6114e8565b5b6000611c3d85828601611513565b925050602083013567ffffffffffffffff811115611c5e57611c5d6114ed565b5b611c6a85828601611978565b9150509250929050565b60006020820190508181036000830152611c8e81846115ac565b905092915050565b6000819050919050565b6000611cbb611cb6611cb184611bbc565b611c96565b611bbc565b9050919050565b6000611ccd82611ca0565b9050919050565b6000611cdf82611cc2565b9050919050565b611cef81611cd4565b82525050565b6000602082019050611d0a6000830184611ce6565b92915050565b611d1981611bdc565b8114611d2457600080fd5b50565b600081359050611d3681611d10565b92915050565b60008060408385031215611d5357611d526114e8565b5b6000611d6185828601611513565b9250506020611d7285828601611d27565b9150509250929050565b60006040820190508181036000830152611d9681856117ce565b90508181036020830152611daa81846117ce565b90509392505050565b6000602082019050611dc86000830184611600565b92915050565b7f42657420646f6573206e6f742065786973740000000000000000000000000000600082015250565b6000611e04601283611560565b9150611e0f82611dce565b602082019050919050565b60006020820190508181036000830152611e3381611df7565b9050919050565b7f4e487b7100000000000000000000000000000000000000000000000000000000600052602260045260246000fd5b60006002820490506001821680611e8157607f821691505b602082108103611e9457611e93611e3a565b5b50919050565b7f4e487b7100000000000000000000000000000000000000000000000000000000600052603260045260246000fd5b7f4e487b7100000000000000000000000000000000000000000000000000000000600052601160045260246000fd5b6000611f03826114f2565b91507fffffffffffffffffffffffffffffffffffffffffffffffffffffffffffffffff8203611f3557611f34611ec9565b5b600182019050919050565b7f42657420686173206265656e207265736f6c7665640000000000000000000000600082015250565b6000611f76601583611560565b9150611f8182611f40565b602082019050919050565b60006020820190508181036000830152611fa581611f69565b9050919050565b7f42657420616d6f756e74206d7573742062652067726561746572207468616e2060008201527f7a65726f00000000000000000000000000000000000000000000000000000000602082015250565b6000612008602483611560565b915061201382611fac565b604082019050919050565b6000602082019050818103600083015261203781611ffb565b9050919050565b60006060820190506120536000830186611bee565b6120606020830185611bee565b61206d6040830184611600565b949350505050565b61207e816115e5565b811461208957600080fd5b50565b60008151905061209b81612075565b92915050565b6000602082840312156120b7576120b66114e8565b5b60006120c58482850161208c565b91505092915050565b7f546f6b656e207472616e73666572206661696c65640000000000000000000000600082015250565b6000612104601583611560565b915061210f826120ce565b602082019050919050565b60006020820190508181036000830152612133816120f7565b9050919050565b6000612145826114f2565b9150612150836114f2565b925082820190508082111561216857612167611ec9565b5b92915050565b60006040820190506121836000830185611600565b818103602083015261219581846115ac565b90509392505050565b60008190508160005260206000209050919050565b60006020601f8301049050919050565b600082821b905092915050565b6000600883026122007fffffffffffffffffffffffffffffffffffffffffffffffffffffffffffffffff826121c3565b61220a86836121c3565b95508019841693508086168417925050509392505050565b600061223d612238612233846114f2565b611c96565b6114f2565b9050919050565b6000819050919050565b61225783612222565b61226b61226382612244565b8484546121d0565b825550505050565b600090565b612280612273565b61228b81848461224e565b505050565b5b818110156122af576122a4600082612278565b600181019050612291565b5050565b601f8211156122f4576122c58161219e565b6122ce846121b3565b810160208510156122dd578190505b6122f16122e9856121b3565b830182612290565b50505b505050565b600082821c905092915050565b6000612317600019846008026122f9565b1980831691505092915050565b60006123308383612306565b9150826002028217905092915050565b61234982611555565b67ffffffffffffffff8111156123625761236161187b565b5b61236c8254611e69565b6123778282856122b3565b600060209050601f8311600181146123aa5760008415612398578287015190505b6123a28582612324565b86555061240a565b601f1984166123b88661219e565b60005b828110156123e0578489015182556001820191506020850194506020810190506123bb565b868310156123fd57848901516123f9601f891682612306565b8355505b6001600288020188555050505b505050505050565b7f4f6e6c7920746865206f776e65722063616e20706572666f726d20746869732060008201527f616374696f6e0000000000000000000000000000000000000000000000000000602082015250565b600061246e602683611560565b915061247982612412565b604082019050919050565b6000602082019050818103600083015261249d81612461565b9050919050565b7f4174206c656173742074776f206f7074696f6e7320617265207265717569726560008201527f6400000000000000000000000000000000000000000000000000000000000000602082015250565b6000612500602183611560565b915061250b826124a4565b604082019050919050565b6000602082019050818103600083015261252f816124f3565b9050919050565b6000604082019050818103600083015261255081856115ac565b9050818103602083015261256481846116f9565b90509392505050565b7f4265742068617320616c7265616479206265656e207265736f6c766564000000600082015250565b60006125a3601d83611560565b91506125ae8261256d565b602082019050919050565b600060208201905081810360008301526125d281612596565b9050919050565b60006125e4826114f2565b91506125ef836114f2565b92508282026125fd816114f2565b9150828204841483151761261457612613611ec9565b5b5092915050565b7f4e487b7100000000000000000000000000000000000000000000000000000000600052601260045260246000fd5b6000612655826114f2565b9150612660836114f2565b9250826126705761266f61261b565b5b828204905092915050565b60006040820190506126906000830185611bee565b61269d6020830184611600565b9392505050565b7f4661696c656420746f2073656e64204574686572000000000000000000000000600082015250565b60006126da601483611560565b91506126e5826126a4565b602082019050919050565b60006020820190508181036000830152612709816126cd565b9050919050565b600081905092915050565b600061272682611555565b6127308185612710565b9350612740818560208601611571565b80840191505092915050565b6000612758828461271b565b915081905092915050565b6000815461277081611e69565b61277a8186612710565b9450600182166000811461279557600181146127aa576127dd565b60ff19831686528115158202860193506127dd565b6127b38561219e565b60005b838110156127d5578154818901526001820191506020810190506127b6565b838801955050505b50505092915050565b60006127f28284612763565b915081905092915050565b7f4f7074696f6e20646f6573206e6f742065786973740000000000000000000000600082015250565b6000612833601583611560565b915061283e826127fd565b602082019050919050565b6000602082019050818103600083015261286281612826565b905091905056fea2646970667358221220917db268ec0ce7e25eeda5d4c69b9aa431e1692f2362d0870edc3aba67ef43dd64736f6c63430008140033",
  "linkReferences": {},
  "deployedLinkReferences": {}
}